:020000040800F2
:100000007008002089010008270400081F04000868
:1000100023040008890200086509000800000000A8
:100020000000000000000000000000006107000860
:10003000E5020008000000003D0700084D08000828
:10004000A3010008A3010008A3010008A301000800
:10005000A3010008A3010008A3010008A3010008F0
:10006000A3010008A3010008A3010008A3010008E0
:10007000A3010008A3010008A3010008A3010008D0
:10008000A3010008A3010008A3010008A3010008C0
:10009000A3010008A3010008A3010008A3010008B0
:1000A000A3010008A3010008A3010008A3010008A0
:1000B000A3010008A3010008A3010008A301000890
:1000C000A3010008A3010008A3010008A301000880
:1000D000A3010008A3010008A3010008A301000870
:1000E000A3010008A3010008A301000800F002F822
:1000F00000F03AF80AA090E8000C82448344AAF188
:100100000107DA4501D100F02FF8AFF2090EBAE885
:100110000F0013F0010F18BFFB1A43F0010318473B
:100120001812000038120000103A24BF78C878C1B5
:10013000FAD8520724BF30C830C144BF04680C60ED
:10014000704700000023002400250026103A28BF35
:1001500078C1FBD8520728BF30C148BF0B60704739
:100160001FB51FBD10B510BD00F034F81146FFF7E4
:10017000F7FF00F057FC00F052F803B4FFF7F2FF6E
:1001800003BC00F055F800000948804709480047C3
:10019000FEE7FEE7FEE7FEE7FEE7FEE7FEE7FEE737
:1001A000FEE7FEE704480549034A054B7047000097
:1001B00051080008ED0000087006002070080020BB
:1001C0007006002070477047704700000048704775
:1001D000100600207546FFF7F9FFAE460500694698
:1001E000534620F00700854618B020B5FFF7DAFF28
:1001F000BDE820404FF000064FF000074FF0000828
:100200004FF0000B21F00701AC46ACE8C009ACE8A8
:10021000C009ACE8C009ACE8C0098D46704710B50C
:100220000446AFF300802046BDE81040FFF7A5BFAD
:1002300001491820ABBEFEE726000200704700000F
:10024000A0E8F01F40F804DB40F804EBEFF3038272
:100250000260B1E8F01FD1F800D001F10801086890
:1002600080F30388A1F10401D1F800F0B0E8F01F99
:10027000D0F800D000F10800016881F30388A0F1F4
:100280000400D0F800F0000000BFFEE741F2A453E4
:1002900000FB03F2002100BF914200D101E0491CA4
:1002A000FAE700BF7047000008B50121082000F000
:1002B00047FA10208DF803002020ADF8000003203D
:1002C0008DF802006946064800F01AF8202104481B
:1002D00000F0A3F800F0C8F800F0A6F808BD000090
:1002E000000C0140704741F2A45300FB03F20021CF
:1002F00000BF914200D101E0491CFAE700BF7047FE
:100300002DE9F041024600250026002000230024AC
:10031000002791F803C00CF00F0591F803C00CF012
:10032000100CBCF1000F03D091F802C04CEA050597
:1003300091F800C0BCF1000F31D0146800202BE010
:100340004FF0010C0CFA00F3B1F800C00CEA030600
:100350009E4220D183004FF00F0C0CFA03F7BC43F0
:1003600005FA03FC4CEA040491F803C0BCF1280F21
:1003700006D14FF0010C0CFA00FCC2F814C00AE0E0
:1003800091F803C0BCF1480F05D14FF0010C0CFAF5
:1003900000FCC2F810C0401C0828D1D31460B1F88A
:1003A00000C0BCF1FF0F34DD546800202EE000F1E6
:1003B000080C4FF0010808FA0CF3B1F800C00CEA81
:1003C00003069E4221D183004FF00F0C0CFA03F775
:1003D000BC4305FA03FC4CEA040491F803C0BCF1E9
:1003E000280F05D100F1080C08FA0CF8C2F81480A7
:1003F00091F803C0BCF1480F07D100F1080C4FF091
:10040000010808FA0CF8C2F81080401C0828CED366
:100410005460BDE8F081416170470161704700BFE1
:10042000FEE700BFFEE7704770B5002419E004F155
:10043000B001C8B2002100F047F90021084600F0E1
:1004400043F90021102000F03FF9002505E00121CB
:10045000002000F039F9681CC5B2802DF7DB601C64
:10046000C4B2082CE3DB70BD08B50121042000F004
:1004700067F9B020ADF8000010208DF803000320CC
:100480008DF8020069465448FFF73AFFB021524800
:10049000FFF7C3FF0121082000F052F90320ADF857
:1004A000000010208DF8030003208DF8020069463B
:1004B0004A48FFF725FF03214848FFF7AEFF012117
:1004C0004648FFF7AAFF6420FFF70DFF01214348CC
:1004D000FFF7A1FFC820FFF706FF01213F48FFF704
:1004E0009CFF0021AE2000F0EFF80021084600F04C
:1004F000EBF80021102000F0E7F80021402000F088
:10050000E3F80021812000F0DFF80021CF2000F087
:10051000DBF80021A12000F0D7F80021C82000F06E
:10052000D3F80021A62000F0CFF80021A82000F089
:10053000CBF800213F2000F0C7F80021D32000F0C5
:10054000C3F80021084600F0BFF80021D52000F0D4
:10055000BBF80021802000F0B7F80021D92000F07E
:10056000B3F80021F12000F0AFF80021DA2000F00C
:10057000ABF80021122000F0A7F80021DB2000F0EA
:10058000A3F80021402000F09FF80021202000F077
:100590009BF80021022000F097F800218D2000F048
:1005A00093F80021142000F08FF80021A42000F01F
:1005B0008BF80021A62000F087F80021AF2000F082
:1005C00083F80021AF2000F07FF8FFF72DFF002116
:1005D000084600F005F808BD00080140000C014085
:1005E00070B504460D4605F1B001C8B2002100F017
:1005F0006BF8102141EA1410002100F065F804F0B6
:100600000F0141F00100002100F05EF870BD000014
:100610002DE9F04106460C4617464FF0000800252C
:10062000A7F1200000F0FF087F2E02DD0026A01CAD
:10063000C4B2601CC1B23046FFF7D2FF00250AE009
:1006400008EB4801064A02EB4101485D012100F038
:100650003BF8681CC5B2062DF2DBBDE8F081000056
:10066000200B00082DE9F04105460F461646984636
:100670000024B8F1100F13D10EE0325D3946284640
:10068000FFF7C6FF05F10800C5B2782D02DD002591
:10069000B81CC7B2601CC4B2305D0028EDD111E0B7
:1006A0000DE0325D39462846FFF7B2FFA81DC5B2FE
:1006B0007A2D02DD0025B81CC7B2601CC4B2305DC3
:1006C0000028EED1BDE8F08170B504460E4626B193
:1006D00002211848FFF7A1FE03E002211548FFF7A9
:1006E0009AFE10211448FFF796FE002517E02021FE
:1006F0001148FFF790FE04F0800020B180210E48E1
:10070000FFF78BFE03E080210B48FFF784FE2021DA
:100710000948FFF782FE6006040E681CC5B2082D6A
:10072000E5DB10210448FFF778FE02210148FFF7BE
:1007300074FE70BD000C01400008014070470000CD
:1007400029B1064A92690243044B9A6104E0034AC4
:1007500092698243014B9A61704700000010024089
:10076000704710B500F002F810BD00000CB5002075
:10077000019000903348006840F4803031490860AF
:1007800000BF3048006800F4003000900198401C21
:100790000190009818B90198B0F5A06FF1D12948DF
:1007A000006800F4003010B10120009001E000204A
:1007B00000900098012843D12348006840F01000C1
:1007C000214908600846006820F0030008600846D8
:1007D000006840F0020008601A4840681949486003
:1007E0000846406848600846406840F480604860B9
:1007F0000846406820F47C1048600846406840F491
:10080000E81048600846006840F08070086000BF4B
:100810000C48006800F000700028F9D009484068D2
:1008200020F00300074948600846406840F0020095
:10083000486000BF0348406800F00C000828F9D168
:100840000CBD000000100240002002407047000074
:1008500010B51348006840F00100114908600846CF
:100860004068104908400E494860084600680E4933
:1008700008400B4908600846006820F480200860A2
:100880000846406820F4FE0048604FF41F0088606E
:10089000FFF767FF4FF000600449086010BD0000DB
:1008A000001002400000FFF8FFFFF6FE08ED00E038
:1008B00011E020210848FFF7AEFD082307A203211D
:1008C0000020FFF7CFFE4FF47A70FFF7DFFC0648F9
:1008D000006800F085F8ECE7000C01405461736B90
:1008E00020312052756E00000800002011E0202108
:1008F0000848FFF792FD082307A203210020FFF715
:10090000B1FE4FF4FA60FFF7C1FC0648006800F042
:1009100067F8ECE7000C01405461736B2032205201
:10092000756E00000C00002011E020210848FFF740
:1009300072FD082307A203210020FFF793FE40F673
:10094000B830FFF7A3FC0648006800F049F8ECE770
:10095000000C01405461736B20332052756E00000F
:100960000400002000BFFEE700A070473030312EA9
:100970003030322E3030312E303130002DE9F04120
:1009800004460D46164614B90020BDE8F0810DB9A5
:100990000020FAE732462946204600F02FF80746A5
:1009A0003846F2E70A46014600230B604B608B6035
:1009B000CB600B614B618B61CB610B6248628A62D9
:1009C0004FF08073CB62704770B5044625460348EC
:1009D00004602846FFF74AFC70BD000000000020BC
:1009E00070B504460448066825460460294630462A
:1009F000FFF726FC70BD0000000000202DE9F0414B
:100A000004460D461646A81920F00308A8F1300048
:100A100020F0070721463846FFF7C4FF3846BDE8F7
:100A2000F081000010B5FFF713FFFFF73DFC102326
:100A300021A200210846FFF715FE082321A202216A
:100A40000020FFF70FFE4FF4007222492248FFF703
:100A500095FF224908604FF4007221492148FFF7B1
:100A60008DFF214908604FF4007220492048FFF7AC
:100A700085FF2049086008231FA202210020FFF7FC
:100A8000F1FD082320A205210020FFF7EBFDFFF771
:100A90006BFF04460823224606210020FFF7E2FDF3
:100AA00008231CA203210020FFF7DCFD0B4800688F
:100AB000FFF78AFF002010BD57616E6C69785F4FA9
:100AC000530000005461736B20496E69742E2E2E02
:100AD0000000000010000020B10800080400002001
:100AE00010020020ED08000808000020100400207B
:100AF000290900080C0000205461736B20496E69BD
:100B000074204F4B0000000056657273696F6E3A97
:100B1000000000005461736B20312052756E00009C
:100B20000000000000000000002F0000000007008F
:100B3000070000147F147F1400242A7F2A12006209
:100B400064081323003649552250000005030000B5
:100B500000001C224100000041221C000014083E3D
:100B600008140008083E0808000000A06000000803
:100B70000808080800006060000000201008040257
:100B8000003E5149453E0000427F40000042615115
:100B90004946002141454B31001814127F100027AF
:100BA00045454539003C4A49493000017109050372
:100BB00000364949493600064949291E00003636A3
:100BC0000000000056360000000814224100001406
:100BD00014141414000041221408000201510906E3
:100BE00000324959513E007C1211127C007F494964
:100BF0004936003E41414122007F4141221C007F95
:100C000049494941007F09090901003E4149497AA2
:100C1000007F0808087F0000417F4100002040411C
:100C20003F01007F08142241007F40404040007F88
:100C3000020C027F007F0408107F003E4141413ECC
:100C4000007F09090906003E4151215E007F091914
:100C500029460046494949310001017F0101003F11
:100C60004040403F001F2040201F003F4038403F91
:100C700000631408146300070870080700615149F5
:100C8000454300007F41410000552A552A55000088
:100C900041417F0000040201020400404040404006
:100CA000000001020400002054545478007F48449E
:100CB000443800384444442000384444487F0038D5
:100CC0005454541800087E0901020018A4A4A47CFE
:100CD000007F080404780000447D400000408084C8
:100CE0007D00007F102844000000417F4000007C10
:100CF00004180478007C080404780038444444381C
:100D000000FC242424180018242418FC007C080467
:100D1000040800485454542000043F444020003C40
:100D20004040207C001C2040201C003C4030403CC7
:100D3000004428102844001CA0A0A07C0044645457
:100D40004C4414141414141400000000000000009B
:100D50000000000000000000000000F8000000009B
:100D6000000000333000000000100C06100C0600DC
:100D7000000000000000000040C07840C078400043
:100D8000043F04043F040400007088FC08300000A5
:100D9000001820FF211E0000F008F000E0180000FD
:100DA00000211C031E211E0000F0088870000000B6
:100DB0001E2123241927211010160E000000000008
:100DC0000000000000000000000000E01804020025
:100DD000000000071820400000020418E000000096
:100DE0000040201807000000404080F08040400094
:100DF0000202010F01020200000000F000000000EA
:100E00000101011F010101000000000000000000BD
:100E100080B0700000000000000000000000000032
:100E200000010101010101010000000000000000BB
:100E30000030300000000000000000008060180456
:100E4000006018060100000000E010080810E00033
:100E5000000F102020100F00001010F800000000FC
:100E60000020203F20200000007008080888700043
:100E700000302824222130000030088888483000C3
:100E80000018202020110E000000C02010F80000E3
:100E900000070424243F240000F80888880808007C
:100EA0000019212020110E0000E010888818000091
:100EB000000F112020110E0000380808C838080063
:100EC0000000003F000000000070880808887000E3
:100ED000001C222121221C0000E010080810E00064
:100EE0000000312222110F00000000C0C0000000ED
:100EF0000000003030000000000000800000000012
:100F00000000806000000000000080402010080009
:100F100000010204081020004040404040404000D2
:100F200004040404040404000008102040800000AD
:100F30000020100804020100007048080808F000B2
:100F40000000003036010000C030C828E810E00082
:100F50000718272423140B000000C038E00000000D
:100F6000203C23020227382008F888888870000077
:100F7000203F202020110E00C0300808080838004B
:100F8000071820202010080008F808080810E000C2
:100F9000203F202020100F0008F88888E808100063
:100FA000203F20202320180008F88888E808100037
:100FB000203F200003000000C0300808083800006F
:100FC00007182020221E020008F808000008F80870
:100FD000203F210101213F20000808F808080000F7
:100FE0000020203F2020000000000808F80808002A
:100FF000C08080807F00000008F888C028180800A2
:10100000203F20012638200008F8080000000000DA
:10101000203F20202020300008F8F800F8F80800D1
:10102000203F003F003F200008F830C00008F808CB
:10103000203F200007183F00E01008080810E000DB
:101040000F10202020100F0008F808080808F000F2
:10105000203F210101010000E01008080810E00015
:101060000F18242438504F0008F8888888887000AA
:10107000203F2000030C302000708808080838004A
:101080000038202121221C00180808F80808180040
:101090000000203F2000000008F808000008F808C1
:1010A000001F202020201F000878880000C8380872
:1010B000000007380E010000F80800F80008F800EA
:1010C000033C0700073C0300081868808068180884
:1010D00020302C03032C30200838C800C838080002
:1010E0000000203F2000000010080808C838080051
:1010F0002038262120201800000000FE02020200F5
:101100000000007F40404000000C30C000000000A4
:10111000000000010638C00000020202FE000000CC
:10112000004040407F000000000004020202040072
:1011300000000000000000000000000000000000AF
:101140008080808080808080000202040000000097
:10115000000000000000000000008080808000008F
:101160000019242222223F2008F80080800000007D
:10117000003F112020110E00000000808080000040
:10118000000E112020201100000000808088F8004F
:10119000000E112020103F20000080808080000081
:1011A000001F222222221300008080F088888818E5
:1011B0000020203F202000000000808080808000F0
:1011C000006B94949493600008F800808080000085
:1011D000203F210000203F20008098980000000060
:1011E0000020203F20200000000000809898000090
:1011F00000C08080807F000008F8000080808000B0
:10120000203F24022D302000000808F800000000D4
:101210000020203F2020000080808080808080008F
:10122000203F20003F20003F808000808080000021
:10123000203F210000203F200000808080800000AF
:10124000001F202020201F008080008080000000E0
:1012500080FFA12020110E0000000080808080000F
:10126000000E112020A0FF80808080008080800000
:1012700020203F212000010000008080808080002D
:101280000033242424241900008080E080800000A2
:101290000000001F202000008080000000808000EF
:1012A000001F202020103F20808080000080808050
:1012B00000010E30080601008080008000808080E0
:1012C0000F300C030C300F00008080008080800005
:1012D0000020312E0E312000808080000080808030
:1012E00080818E70180601000080808080808000E0
:1012F0000021302C2221300000000000807C0202FE
:1013000000000000003F404000000000FF0000001F
:1013100000000000FF0000000002027C80000000CE
:101320000040403F000000000006010102020404EA
:10133000000000000000000058130008000000201A
:1013400010000000280100086813000810000020A9
:1013500060080000440100080000000000000000D8
:08136000000000000000000085
:04000005080000ED02
:00000001FF
