:020000040800F2
:10000000300A002001010008150300080D03000854
:1000100011030008910100083507000800000000E6
:100020000000000000000000000000000D040008B7
:10003000ED0100080000000017030008F9040008A3
:100040001B0100081B0100081B0100081B01000820
:100050001B0100081B0100081B0100081B01000810
:100060001B0100081B0100081B0100081B01000800
:100070001B0100081B0100081B0100081B010008F0
:100080001B0100081B0100081B0100081B010008E0
:100090001B0100081B0100081B0100081B010008D0
:1000A0001B0100081B0100081B0100081B010008C0
:1000B0001B0100081B0100081B0100081B010008B0
:1000C0001B0100081B0100081B0100081B010008A0
:1000D0001B0100081B0100081B0100081B01000890
:1000E0001B0100081B0100081B010008DFF80CD0F1
:1000F00000F018F800480047B50A0008300A002050
:100100000648804706480047FEE7FEE7FEE7FEE7B1
:10011000FEE7FEE7FEE7FEE7FEE7FEE7FD04000878
:10012000ED000008064C074D06E0E06840F00103D2
:1001300094E8070098471034AC42F6D3FFF7DAFF93
:10014000E00A0008000B0008A0E8F01F40F804DBFC
:1001500040F804EBEFF303820260B1E8F01FD1F83E
:1001600000D001F10801086880F30388A1F10401BF
:10017000D1F800F0B0E8F01FD0F800D000F108008E
:10018000016881F30388A0F10400D0F800F00000BA
:1001900000BFFEE741F2A45300FB03F2002100BFC1
:1001A000914200D101E0491CFAE700BF704700000E
:1001B00008B50121082000F0AFF810208DF80300E9
:1001C0002020ADF8000003208DF8020069460648A3
:1001D00000F00DF82021044800F096F84FF4E130CB
:1001E00000F0AAFA08BD0000000C014070472DE99C
:1001F000F0410246002500260020002300240027AD
:1002000091F803C00CF00F0591F803C00CF0100C2E
:10021000BCF1000F03D091F802C04CEA050591F83B
:1002200000C0BCF1000F31D0146800202BE04FF06B
:10023000010C0CFA00F3B1F800C00CEA03069E4270
:1002400020D183004FF00F0C0CFA03F7BC4305FAE2
:1002500003FC4CEA040491F803C0BCF1280F06D15A
:100260004FF0010C0CFA00FCC2F814C00AE091F83F
:1002700003C0BCF1480F05D14FF0010C0CFA00FC93
:10028000C2F810C0401C0828D1D31460B1F800C0D7
:10029000BCF1FF0F34DD546800202EE000F1080CA3
:1002A0004FF0010808FA0CF3B1F800C00CEA03069D
:1002B0009E4221D183004FF00F0C0CFA03F7BC4390
:1002C00005FA03FC4CEA040491F803C0BCF1280FC2
:1002D00005D100F1080C08FA0CF8C2F8148091F866
:1002E00003C0BCF1480F07D100F1080C4FF0010822
:1002F00008FA0CF8C2F81080401C0828CED35460CD
:10030000BDE8F081416170470161704700BFFEE7C1
:1003100000BFFEE77047704729B1064A9269024361
:10032000044B9A6104E0034A92698243014B9A614B
:10033000704700000010024030B500210022002468
:1003400000232D4D6D6805F00C0121B1042905D065
:10035000082923D105E0294D056022E0274D0560DD
:100360001FE0254D6D6805F47012234D6D6805F48E
:100370008034022505EB92421CB9214D554305609E
:100380000BE01D4D6D6805F400351DB11C4D554346
:10039000056002E0194D5543056002E0174D056008
:1003A00000BF00BF144D6D6805F0F0010909154D3F
:1003B0006B5C0568DD4045600F4D6D6805F4E061DC
:1003C000090A104D6B5C4568DD4085600A4D6D681B
:1003D00005F46051C90A0B4D6B5C4568DD40C56092
:1003E000054D6D6805F44041890B074D6B5CC56890
:1003F000B5FBF3F5056130BD0010024000127A0034
:1004000000093D001800002028000020704710B5AA
:1004100000F002F810BD00000CB500200190009023
:100420003348006840F480303149086000BF3048EC
:10043000006800F4003000900198401C0190009882
:1004400018B90198B0F5A06FF1D12948006800F4FF
:10045000003010B10120009001E0002000900098D1
:10046000012843D12348006840F01000214908606A
:100470000846006820F0030008600846006840F065
:10048000020008601A4840681949486008464068F8
:1004900048600846406840F480604860084640680C
:1004A00020F47C1048600846406840F4E81048603A
:1004B0000846006840F08070086000BF0C48006883
:1004C00000F000700028F9D00948406820F00300CF
:1004D000074948600846406840F00200486000BF95
:1004E0000348406800F00C000828F9D10CBD00005A
:1004F00000100240002002407047000010B5134871
:10050000006840F001001149086008464068104941
:1005100008400E494860084600680E4908400B49EB
:1005200008600846006820F480200860084640689B
:1005300020F4FE0048604FF41F008860FFF767FF5B
:100540004FF000600449086010BD00000010024038
:100550000000FFF8FFFFF6FE08ED00E00EE02021AE
:100560000748FFF7CFFE07A000F008FA4FF47A70B3
:10057000FFF710FE0848006800F0DEF9EFE7000022
:10058000000C01403E3E205441534B203120527517
:100590006E6E696E670A0D00100000200EE02021CB
:1005A0000748FFF7B1FE07A000F0E8F94FF4FA6042
:1005B000FFF7F0FD0948006800F0BEF9EFE7000022
:1005C000000C01400A0D3E3E205441534B20322086
:1005D00052756E6E696E670A0D00000014000020EF
:1005E0000EE020210748FFF78DFE07A000F0C6F9B6
:1005F00040F6B830FFF7CEFD0848006800F09CF9DF
:10060000EFE70000000C01403E3E205441534B20D8
:10061000332052756E6E696E670A0D000C00002063
:1006200021B1828942F40052828104E082894DF630
:10063000FF731A408281704702460020B1F5007FA7
:1006400000D100BF13880B400BB1012000E0002057
:10065000704700002DE9F04786B005460E4600249D
:10066000A24600BFA1460027B08900B100BF2F46B7
:100670002C8A4CF6FF700440F08804432C82AC892D
:100680004EF6F3100440B08831890843718908435D
:100690000443AC81AC8A4FF6FF400440B089044368
:1006A000AC8201A8FFF748FE1F48874202D1DDF85F
:1006B00010A001E0DDF80CA0A88900F4004040B1D2
:1006C0000AEBCA0000EB0A1031684900B0FBF1F8F0
:1006D00007E00AEBCA0000EB0A1031688900B0FBA2
:1006E000F1F86420B8FBF0F004012009642101FB5B
:1006F0001089A88900F4004040B1322000EBC90005
:10070000B0FBF1F000F00700044308E0322000EBFA
:1007100009106421B0FBF1F000F00F0004432C81BC
:1007200006B0BDE8F087000000380140C1F30802C0
:100730008280704700BFFEE710B586B004460121F5
:1007400044F20500FFF7E8FD4FF40070ADF8140027
:1007500018208DF8170003208DF8160005A91248FF
:10076000FFF745FD4FF48060ADF8140004208DF8CC
:10077000170005A90C48FFF73AFD01940020ADF8D9
:100780000800ADF80A00ADF80C00ADF810000C2020
:10079000ADF80E0001A90548FFF75CFF01210348F1
:1007A000FFF73EFF06B010BD0008014000380140D1
:1007B00000A070473030312E3030332E3030322EA2
:1007C0003030350010B5FFF7F3FC19A000F0D6F873
:1007D00021A000F0D3F8FFF7EBFF0446214622A04A
:1007E00000F0CCF821A000F0C9F823A000F0C6F872
:1007F0004FF400722A492B4800F06CF82A4908602F
:100800004FF4007229492A4800F064F82949086029
:100810004FF400722849294800F05CF82849086024
:1008200028A000F0ABF82048006800F085F810BD63
:100830000A0D2A2A2A2A2A2A2A2A2A2A2A2A205732
:10084000616E6C6978204F53202A2A2A2A2A2A2A84
:100850002A2A2A2A2A0A0D000A0D2A202020205698
:10086000657273696F6E3A002573000020202020A6
:10087000202020202A0A0D000A0D2A2D2D2D2D2D95
:100880002D2D2D2D2D2D2D2D2D2D2D2D2D2D2D2D98
:100890002D2D2D2D2D2D2D2D2D2D2D2D2A0A0D00FB
:1008A0002C0200205D0500080C0000202C04002014
:1008B0009D050008100000202C060020E10500081E
:1008C000140000200A0D3E3E204F532052756E0A40
:1008D0000D0000002DE9F04104460D46164614B9FE
:1008E0000020BDE8F0810DB90020FAE73246294624
:1008F000204600F02FF807463846F2E70A46014640
:1009000000230B604B608B60CB600B614B618B6194
:10091000CB610B6248628A624FF08073CB62704792
:1009200070B504462546034804602846FFF722FCBC
:1009300070BD00000000002070B504460448066841
:100940002546046029463046FFF7FEFB70BD0000D7
:10095000000000202DE9F04104460D461646A81976
:1009600020F00308A8F1300020F0070721463846A0
:10097000FFF7C4FF3846BDE8F08100000FB4054B17
:1009800010B503A9044A029800F017F810BC5DF8EE
:1009900014FB0000910A00080800002002E008C8CB
:1009A000121F08C1002AFAD170477047002001E0E9
:1009B00001C1121F002AFBD170472DE9F84F99465B
:1009C000924688460546002706E025280AD051466B
:1009D0004A4690476D1C7F1C28780028F5D1384680
:1009E000BDE8F88F002315F8011F18462E2915D1F0
:1009F00015F8011F04232A290DD06FF02F02297842
:100A0000A1F13004092C09D800EB800002EB400072
:100A100008446D1CF3E758F8040B6D1C2A78002A73
:100A2000DDD0632A07D0732A0FD0104651464A46BC
:100A300090477F1C2AE018F8042B8DF80020002135
:100A40008DF801106E46012103E058F8046B4FF059
:100A5000FF315A074FF0000401D409E0641C8442BE
:100A60000BDA8C42FADB325D002AF7D105E0641C18
:100A70008C42FCDB305D0028F9D1274404E016F8F5
:100A8000010B51464A469047641EF8D26D1CA3E7FD
:100A900070B504460D46E1B20548FFF747FE00BFBA
:100AA00040210348FFF7C8FD0028F9D0204670BD5B
:100AB0000038014010B54FF4007206490648FFF7B0
:100AC00009FF0649086008460068FFF729FF002073
:100AD00010BD00002C000020C50700080400002005
:100AE000000B0008000000202C0000009C090008FA
:100AF0002C0B00082C000020040A0000AC090008A0
:100B000000000000000000000000000000000000E5
:100B100000000000000000000000000001020304CB
:0C0B20000102030406070809020406088D
:04000005080000ED02
:00000001FF
