:020000040800F2
:10000000900500208901000805040008C7030008C6
:100010000104000889020008C9050008000000006A
:10002000000000000000000000000000290400089B
:10003000A7020008000000000704000815050008DA
:10004000A3010008A3010008A3010008A301000800
:10005000A3010008A3010008A3010008A3010008F0
:10006000A3010008A3010008A3010008A3010008E0
:10007000A3010008A3010008A3010008A3010008D0
:10008000A3010008A3010008A3010008A3010008C0
:10009000A3010008A3010008A3010008A3010008B0
:1000A000A3010008A3010008A3010008A3010008A0
:1000B000A3010008A3010008A3010008A301000890
:1000C000A3010008A3010008A3010008A301000880
:1000D000A3010008A3010008A3010008A301000870
:1000E000A3010008A3010008A301000800F002F822
:1000F00000F03AF80AA090E8000C82448344AAF188
:100100000107DA4501D100F02FF8AFF2090EBAE885
:100110000F0013F0010F18BFFB1A43F0010318473B
:1001200080050000A0050000103A24BF78C878C1FF
:10013000FAD8520724BF30C830C144BF04680C60ED
:10014000704700000023002400250026103A28BF35
:1001500078C1FBD8520728BF30C148BF0B60704739
:100160001FB51FBD10B510BD00F02FF81146FFF7E9
:10017000F7FF00F06FFA00F04DF803B4FFF7F2FF5D
:1001800003BC00F055F800000948804709480047C3
:10019000FEE7FEE7FEE7FEE7FEE7FEE7FEE7FEE737
:1001A000FEE7FEE704480549034A054B7047000097
:1001B00019050008ED0000089003002090050020BC
:1001C00090030020704770477047754600F02CF888
:1001D000AE4605006946534620F00700854618B034
:1001E00020B5FFF7DFFFBDE820404FF000064FF0DD
:1001F00000074FF000084FF0000B21F00701AC465C
:10020000ACE8C009ACE8C009ACE8C009ACE8C0097A
:100210008D46704710B50446AFF300802046BDE818
:100220001040FFF7AABF0000004870472C030020D1
:1002300001491820ABBEFEE726000200704700000F
:10024000A0E8F01F40F804DB40F804EBEFF3038272
:100250000260B1E8F01FD1F800D001F10801086890
:1002600080F30388A1F10401D1F800F0B0E8F01F99
:10027000D0F800D000F10800016881F30388A0F1F4
:100280000400D0F800F0000000BFFEE741F2A453E4
:1002900000FB03F2002100BF914200D101E0491CA4
:1002A000FAE700BF704770472DE9F041024600258C
:1002B0000026002000230024002791F803C00CF042
:1002C0000F0591F803C00CF0100CBCF1000F03D027
:1002D00091F802C04CEA050591F800C0BCF1000F8E
:1002E00031D0146800202BE04FF0010C0CFA00F321
:1002F000B1F800C00CEA03069E4220D183004FF003
:100300000F0C0CFA03F7BC4305FA03FC4CEA040497
:1003100091F803C0BCF1280F06D14FF0010C0CFA84
:1003200000FCC2F814C00AE091F803C0BCF1480F09
:1003300005D14FF0010C0CFA00FCC2F810C0401CB3
:100340000828D1D31460B1F800C0BCF1FF0F34DD30
:10035000546800202EE000F1080C4FF0010808FA64
:100360000CF3B1F800C00CEA03069E4221D18300D1
:100370004FF00F0C0CFA03F7BC4305FA03FC4CEAF0
:10038000040491F803C0BCF1280F05D100F1080C5A
:1003900008FA0CF8C2F8148091F803C0BCF1480FB9
:1003A00007D100F1080C4FF0010808FA0CF8C2F868
:1003B0001080401C0828CED35460BDE8F081416114
:1003C00070470161704700BFFEE7000008B50121DA
:1003D000082000F019F810208DF803002020ADF857
:1003E000000003208DF8020069460448FFF75CFF17
:1003F00020210248FFF7E5FF08BD0000000C014086
:1004000000BFFEE77047704729B1064A9269024370
:10041000044B9A6104E0034A92698243014B9A615A
:100420007047000000100240704710B500F002F85D
:1004300010BD00000CB5002001900090334800680A
:1004400040F480303149086000BF3048006800F453
:10045000003000900198401C0190009818B9019854
:10046000B0F5A06FF1D12948006800F4003010B158
:100470000120009001E0002000900098012843D165
:100480002348006840F010002149086008460068D1
:1004900020F0030008600846006840F00200086091
:1004A0001A4840681949486008464068486008464C
:1004B000406840F4806048600846406820F47C1042
:1004C00048600846406840F4E81048600846006804
:1004D00040F08070086000BF0C48006800F00070B9
:1004E0000028F9D00948406820F003000749486017
:1004F0000846406840F00200486000BF034840687A
:1005000000F00C000828F9D10CBD000000100240DA
:10051000002002407047000010B51348006840F00A
:1005200001001149086008464068104908400E491A
:100530004860084600680E4908400B4908600846B4
:10054000006820F4802008600846406820F4FE001F
:1005500048604FF41F008860FFF767FF4FF00060AE
:100560000449086010BD0000001002400000FFF8C0
:10057000FFFFF6FE08ED00E00146012901D1024827
:1005800070470248FCE700009C0100202C0300207B
:1005900009E020210448FFF712FF4FF47A70FFF7BB
:1005A00075FE00F037F8F4E7000C014009E0202167
:1005B0000448FFF706FF4FF4FA60FFF767FE00F00C
:1005C00029F8F4E7000C014000BFFEE710B5024631
:1005D0000B46A3F13000014600240C604C608C6097
:1005E000CC600C614C618C61CC610C6248628A62A7
:1005F0004FF08074CC6210BD10B50448046801202F
:10060000034908602046FFF731FE10BD04000020BA
:100610000000002070B50C480068012807D10B4885
:1006200005680B48046802200749086006E008488E
:1006300005680648046801200349086021462846E9
:10064000FFF7FEFD70BD0000000000200400002048
:100650000800002010B5FFF75FFFFFF7B7FE01208D
:10066000FFF78AFF044621460948FFF7AFFF094913
:1006700008600220FFF780FF044621460648FFF786
:10068000A5FF06490860FFF7B7FF002010BD000076
:100690009105000804000020AD05000808000020B6
:1006A000C0060008000000200C000000280100081F
:1006B000CC0600080C00002084050000440100085E
:0C06C0000000000000000000000000002E
:04000005080000ED02
:00000001FF
