:020000040800F2
:10000000A00300208901000805040008FD03000882
:100010000104000889020008E5050008000000004E
:10002000000000000000000000000000290400089B
:10003000DD020008000000000704000815050008A4
:10004000A3010008A3010008A3010008A301000800
:10005000A3010008A3010008A3010008A3010008F0
:10006000A3010008A3010008A3010008A3010008E0
:10007000A3010008A3010008A3010008A3010008D0
:10008000A3010008A3010008A3010008A3010008C0
:10009000A3010008A3010008A3010008A3010008B0
:1000A000A3010008A3010008A3010008A3010008A0
:1000B000A3010008A3010008A3010008A301000890
:1000C000A3010008A3010008A3010008A301000880
:1000D000A3010008A3010008A3010008A301000870
:1000E000A3010008A3010008A301000800F002F822
:1000F00000F03AF80AA090E8000C82448344AAF188
:100100000107DA4501D100F02FF8AFF2090EBAE885
:100110000F0013F0010F18BFFB1A43F0010318473B
:10012000D4050000F4050000103A24BF78C878C157
:10013000FAD8520724BF30C830C144BF04680C60ED
:10014000704700000023002400250026103A28BF35
:1001500078C1FBD8520728BF30C148BF0B60704739
:100160001FB51FBD10B510BD00F034F81146FFF7E4
:10017000F7FF00F08DFA00F052F803B4FFF7F2FF3A
:1001800003BC00F055F800000948804709480047C3
:10019000FEE7FEE7FEE7FEE7FEE7FEE7FEE7FEE737
:1001A000FEE7FEE704480549034A054B7047000097
:1001B00019050008ED000008A0010020A0030020A0
:1001C000A00100207047704770470000004870474A
:1001D0003C0100207546FFF7F9FFAE460500694671
:1001E000534620F00700854618B020B5FFF7DAFF28
:1001F000BDE820404FF000064FF000074FF0000828
:100200004FF0000B21F00701AC46ACE8C009ACE8A8
:10021000C009ACE8C009ACE8C0098D46704710B50C
:100220000446AFF300802046BDE81040FFF7A5BFAD
:1002300001491820ABBEFEE726000200704700000F
:10024000A0E8F01F40F804DB40F804EBEFF3038272
:100250000260B1E8F01FD1F800D001F10801086890
:1002600080F30388A1F10401D1F800F0B0E8F01F99
:10027000D0F800D000F10800016881F30388A0F1F4
:100280000400D0F800F0000000BFFEE741F2A453E4
:1002900000FB03F2002100BF914200D101E0491CA4
:1002A000FAE700BF7047000008B50121082000F000
:1002B000ABF810208DF803002020ADF800000320DB
:1002C0008DF802006946044800F009F82021024830
:1002D00000F092F808BD0000000C014070472DE9C5
:1002E000F0410246002500260020002300240027BC
:1002F00091F803C00CF00F0591F803C00CF0100C3E
:10030000BCF1000F03D091F802C04CEA050591F84A
:1003100000C0BCF1000F31D0146800202BE04FF07A
:10032000010C0CFA00F3B1F800C00CEA03069E427F
:1003300020D183004FF00F0C0CFA03F7BC4305FAF1
:1003400003FC4CEA040491F803C0BCF1280F06D169
:100350004FF0010C0CFA00FCC2F814C00AE091F84E
:1003600003C0BCF1480F05D14FF0010C0CFA00FCA2
:10037000C2F810C0401C0828D1D31460B1F800C0E6
:10038000BCF1FF0F34DD546800202EE000F1080CB2
:100390004FF0010808FA0CF3B1F800C00CEA0306AC
:1003A0009E4221D183004FF00F0C0CFA03F7BC439F
:1003B00005FA03FC4CEA040491F803C0BCF1280FD1
:1003C00005D100F1080C08FA0CF8C2F8148091F875
:1003D00003C0BCF1480F07D100F1080C4FF0010831
:1003E00008FA0CF8C2F81080401C0828CED35460DC
:1003F000BDE8F081416170470161704700BFFEE7D1
:1004000000BFFEE77047704729B1064A9269024370
:10041000044B9A6104E0034A92698243014B9A615A
:100420007047000000100240704710B500F002F85D
:1004300010BD00000CB5002001900090334800680A
:1004400040F480303149086000BF3048006800F453
:10045000003000900198401C0190009818B9019854
:10046000B0F5A06FF1D12948006800F4003010B158
:100470000120009001E0002000900098012843D165
:100480002348006840F010002149086008460068D1
:1004900020F0030008600846006840F00200086091
:1004A0001A4840681949486008464068486008464C
:1004B000406840F4806048600846406820F47C1042
:1004C00048600846406840F4E81048600846006804
:1004D00040F08070086000BF0C48006800F00070B9
:1004E0000028F9D00948406820F003000749486017
:1004F0000846406840F00200486000BF034840687A
:1005000000F00C000828F9D10CBD000000100240DA
:10051000002002407047000010B51348006840F00A
:1005200001001149086008464068104908400E491A
:100530004860084600680E4908400B4908600846B4
:10054000006820F4802008600846406820F4FE001F
:1005500048604FF41F008860FFF767FF4FF00060AE
:100560000449086010BD0000001002400000FFF8C0
:10057000FFFFF6FE08ED00E00BE020210548FFF745
:1005800039FF4FF47A70FFF781FE0348006800F0EE
:100590005DF8F2E7000C0140080000200BE020218C
:1005A0000548FFF729FF4FF4FA60FFF76FFE034895
:1005B000006800F04BF8F2E7000C01400C0000204E
:1005C0000BE020210548FFF717FF40F6B830FFF792
:1005D0005DFE0348006800F039F8F2E7000C0140C6
:1005E0000400002000BFFEE72DE9F04104460D465F
:1005F000164614B90020BDE8F0810DB90020FAE7D5
:1006000032462946204600F02FF807463846F2E7E2
:100610000A46014600230B604B608B60CB600B6188
:100620004B618B61CB610B6248628A624FF08073D1
:10063000CB62704770B504462546034804602846DF
:10064000FFF714FE70BD00000000002070B50446E6
:10065000044806682546046029463046FFF7F0FD49
:1006600070BD0000000000202DE9F04104460D4659
:100670001646A81920F00308A8F1300020F007075B
:1006800021463846FFF7C4FF3846BDE8F081000038
:1006900010B5FFF741FFFFF707FE64220C490D4834
:1006A000FFF7A2FF0C49086064220C490C48FFF7D1
:1006B0009BFF0C49086064220B490C48FFF794FF2C
:1006C0000B49086004480068FFF7B4FF002010BD24
:1006D00010000020790500080400002074000020AC
:1006E0009D05000808000020D8000020C105000872
:1006F0000C0000201407000800000020100000007B
:1007000028010008240700081000002090030000C2
:10071000440100080000000000000000000000008C
:0407200000000000D5
:04000005080000ED02
:00000001FF
